:060000000A128A110E280D
:10000800FE00030EF4000408F5000A08F6000A12C0
:100018008A15B82C0A128A15362B3908380603199E
:10002800080099220A128A118316C8003C3A031D57
:100038002228B501B50AB201B3014E28350B38287C
:1000480048083A3A031D2A2802304128043032026F
:10005800031836283208A63E840048088313800017
:10006800B20A4E28B5014E283508023A031D4E281B
:1000780048083E3A031D43280330B5004E28063091
:100088003302031836283308C03E84004808831317
:100098008000B30A3508033A031D08000130CD215A
:1000A8000A128A11003A0319CE288316C901490891
:1000B800C03E840083130008413A031D6C28831254
:1000C800A001A00A8316490A24220A128A11C62806
:1000D8004908C03E840000084B3A031D7B28831260
:1000E800A0018316490A24220A128A11C62849083F
:1000F800C03E84000008303A031D85283230831240
:10010800C0284908C03E84000008D03EC600FF3021
:1001180003180030C7004708803AFF0080307F028C
:10012800031D982801304602031CC62883160313B2
:100138004908C03E840083130008D03EC600FF3043
:1001480003180030C7004708803AFF0080307F025C
:10015800031DB0280A3046020318C628053083124A
:100168000313A00083164908C03E840083130008C7
:10017800D03EA9220A128A11A3008316490A5C22DA
:100188000A128A11831603130630C90A4902031C8E
:100198005B28A3290230CD210A128A11003A0319DB
:1001A800252915230A128A1158088316AF008312CD
:1001B80057088316AE002F088312E40083162E0812
:1001C8008312E30063230A128A1164088316AD00C0
:1001D800831263088316AC00B8220A128A11260813
:1001E8008316AC070318AD0A831227088316AD07D8
:1001F8008C2283162D088312B60083162C088312CE
:10020800B5000A128A15B5260A128A113C30BF2198
:100218000A128A1183162008BF210A128A1183162E
:100228002108BF210A128A1183162208BF210A1247
:100238008A1183162308BF210A128A1183162408FB
:10024800AC290330CD210A128A11003A0319BC29BE
:100258008B13831603178C182D29053083128D00F4
:10026800831603134008831203178C003F3083164C
:100278008C0503108B1B031455308B130C158D0044
:10028800AA308D008C140C1103188B170D30031332
:10029800C700FB30C600C60B4F29C70B4F2954298E
:1002A800831603178C185429063083128D00831681
:1002B80003134108831203178C003F3083168C0503
:1002C80003108B1B031455308B130C158D00AA30AB
:1002D8008D008C140C1103188B170D300313C700F5
:1002E800FB30C600C60B7629C70B76297B298316F7
:1002F80003178C187B29073083128D00831603138C
:100308004208831203178C003F3083168C050310B4
:100318008B1B031455308B130C158D00AA308D00E0
:100328008C140C1103188B170D300313C700FB3006
:10033800C600C60B9D29C70B9D29A2298B173C30E7
:10034800BF210A128A114F30BF210A128A114B307D
:10035800BF210A128A113E30BF210A128A11572280
:100368000A128A11B8308312A0000B30A10093271B
:100378008316B5010800ED27A0007C08103E840014
:10038800200883178000FC0A7C083C3A0319FC010A
:1003980008008312A100A301A201A20A172A0430AF
:1003A800A300A401230824020318222A2408593E82
:1003B80084000A128A1500200A128A11A4270A1238
:1003C8008A110319E929A201222AA40AD62903308D
:1003D800A300A401230824020318222A24085E3E4D
:1003E80084000A128A1500200A128A11A4270A1208
:1003F8008A11031DE729A40AEE290330A300A401EA
:10040800230824020318222A2408623E84000A12C0
:100418008A1500200A128A11A4270A128A11031DBC
:10042800E729A40A042A2108013A0319D329033A1F
:100438000319EB29013A0319012AE72922080800C0
:100448008312A100452A2008031D88140319881067
:1004580008002008031D08150319081108002008C2
:10046800031D88150319881108002008031D0716A5
:100478000319071208002008031D8716031987129D
:1004880008002108013A0319272A033A03192D2ADB
:10049800013A0319332A073A0319392A013A031989
:1004A8003F2A562A080083120C1283160C160800DD
:1004B8008312A4007A2A88142308F9007814080003
:1004C80008152308FA00F814080088152308EF0017
:1004D80078150800071623088316B000F8150800D9
:1004E800871623088316B100781608002408013AF5
:1004F80003195F2A033A0319642A013A0319692A7E
:10050800073A03196E2A013A0319742A8B2A08003C
:100518008312A0012008A03E8400063083138001C6
:10052800A00A2002031808008E2A3808903E84008A
:10053800831700088312A0008316B80A38083C3ACB
:100548000319B8018312200808008312A200A10130
:1005580020082218A1070310A00D0310A20CA2085E
:10056800031DAC2A21080800063083129C270A12B2
:100578008A110C080313A000D030A101A007031CA6
:10058800A1030A30A200A301FC220A128A11210841
:10059800AB002008AA0007309C270A128A110C0811
:1005A800D03E0313A800FF3003180030A900280824
:1005B800AA070318AB0A2908AB0705309C270A12BB
:1005C8008A110C082D3A031DF62AFF300313A000E8
:1005D800A1002B08A3002A08A200FC222108AB00D6
:1005E8002008AA0003132B08A7002A08A600080061
:1005F800A401A501201C062B2208A4070318A50A9C
:100608002308A5070310A20DA30D0310A10CA00C2D
:1006180021082004031DFE2A2508A1002408A000A3
:100628000800ED27DC01DD01DE01DF010D30682760
:100638000A128A112008DC070318DD0A2108DD07E1
:10064800DE0A0319DF0A00305F02103003195E0268
:10065800031C1A2B0F30DC0EDD0EDC055D08F039AB
:10066800DC040F30DD054030C8004E30C900403092
:10067800CA005D08A9005C08A80083270A128A112D
:100688002808CB002908CC002A08CD00F9260A1230
:100698008A114808D9004908DA004A08DB005908D5
:1006A800A8005A08A9005B08AA0060262908DF00EC
:1006B8002808DE005F08D8005E08D7000800640834
:1006C800803AFF0084307F02031D6C2BE030630208
:1006D800031C9B2B2D3084000A128A1500200A1255
:1006E8008A11ED27EB000A128A1500200A128A11D6
:1006F800EC00433084000A128A1500200A128A117D
:10070800E7000A128A1500200A128A11E80001304F
:1007180084000A128A1500200A128A11ED000A12B2
:100728008A1500200A128A11EE001730B62DDE272E
:100738000A128A11031DA22B76306302031CD12BE7
:100748002F3084000A128A1500200A128A11ED2718
:10075800EB000A128A1500200A128A11EC004530B3
:1007680084000A128A1500200A128A11E7000A1268
:100778008A1500200A128A11E800033084000A1240
:100788008A1500200A128A11ED000A128A15002023
:100798000A128A11EE001930B62DDE270A128A11C4
:1007A800031DD82B0B306302031C072C3130840047
:1007B8000A128A1500200A128A11ED27EB000A1284
:1007C8008A1500200A128A11EC00473084000A12A8
:1007D8008A1500200A128A11E7000A128A150020D9
:1007E8000A128A11E800053084000A128A150020CE
:1007F8000A128A11ED000A128A1500200A128A11BB
:10080800EE001B30B62DCE270A128A11031D0E2CBE
:100818009E306302031C3D2C333084000A128A1573
:1008280000200A128A11ED27EB000A128A1500200F
:100838000A128A11EC00493084000A128A15002035
:100848000A128A11E7000A128A1500200A128A1170
:10085800E800073084000A128A1500200A128A115B
:10086800ED000A128A1500200A128A11EE001D30C6
:10087800B62DCE270A128A11031D442C313063028B
:10088800031C732C353084000A128A1500200A12C2
:100898008A11ED27EB000A128A1500200A128A1124
:1008A800EC004B3084000A128A1500200A128A11C3
:1008B800E7000A128A1500200A128A11E800093096
:1008C80084000A128A1500200A128A11ED000A1201
:1008D8008A1500200A128A11EE001F30B62DD6277D
:1008E8000A128A11031D7A2CC1306302031CA92C39
:1008F800373084000A128A1500200A128A11ED275F
:10090800EB000A128A1500200A128A11EC004D30F9
:1009180084000A128A1500200A128A11E7000A12B6
:100928008A1500200A128A11E8000B3084000A1286
:100938008A1500200A128A11ED000A128A15002071
:100948000A128A11EE002130B62DD6270A128A1112
:10095800031DB02C50306302031CDF2C3930840097
:100968000A128A1500200A128A11ED27EB000A12D2
:100978008A1500200A128A11EC004F3084000A12EE
:100988008A1500200A128A11E7000A128A15002027
:100998000A128A11E8000D3084000A128A15002014
:1009A8000A128A11ED000A128A1500200A128A1109
:1009B800EE002330B62DB6270A128A11031DE62C45
:1009C800DD306302031C152D3B3084000A128A15A2
:1009D80000200A128A11ED27EB000A128A1500205E
:1009E8000A128A11EC00513084000A128A1500207C
:1009F8000A128A11E7000A128A1500200A128A11BF
:100A0800E8000F3084000A128A1500200A128A11A1
:100A1800ED000A128A1500200A128A11EE0025300C
:100A2800B62DB6270A128A11031D1C2D6A306302DF
:100A3800031C4B2D3D3084000A128A1500200A122F
:100A48008A11ED27EB000A128A1500200A128A1172
:100A5800EC00533084000A128A1500200A128A1109
:100A6800E7000A128A1500200A128A11E8001130DC
:100A780084000A128A1500200A128A11ED000A124F
:100A88008A1500200A128A11EE002730B62DBE27DB
:100A98000A128A11031D522DF4306302031C812DA2
:100AA8003F3084000A128A1500200A128A11ED27A5
:100AB800EB000A128A1500200A128A11EC00553040
:100AC80084000A128A1500200A128A11E7000A1205
:100AD8008A1500200A128A11E800133084000A12CD
:100AE8008A1500200A128A11ED000A128A150020C0
:100AF8000A128A11EE002930B62DBE270A128A1171
:100B0800031D882DB7306302031CC32D41308400B8
:100B18000A128A1500200A128A11ED27EB000A1220
:100B28008A1500200A128A11EC00573084000A1234
:100B38008A1500200A128A11E7000A128A15002075
:100B48000A128A11E800153084000A128A1500205A
:100B58000A128A11ED000A128A1500200A128A1157
:100B6800EE002B3084000A128A1500200A128A111E
:100B7800E9000A128A1500200A128A11EA00ED27F4
:100B88006408B6006308C6270A128A1145260A12A5
:100B98008A113508CB003608CC003708CD006A0822
:100BA800B6006908B5006D08B5026E08031CB603E7
:100BB800B60245260A128A113508BC003608BD005F
:100BC8003708BE006808B6006708C6270A128A11E7
:100BD80045263508B9003608BA003708BB000A129E
:100BE8008A158C230A128A113908C8003A08C900E4
:100BF8003B08CA00F9260A128A114808DA0049088F
:100C0800DB004A08DC006E08B6006D08B500452612
:100C18003508D7003608D8003708D9000A128A15CF
:100C2800F6230A128A115708A8005808A90059087B
:100C3800AA0060260A128A112908E6002808E50099
:100C48006408803AFF0080307F02031D2D2EB730E4
:100C58006302031C3B2EED276408803AFF008530B1
:100C68007F02031D392E14306302031C3F2EFF3010
:100C7800ED27E500E601ED276608E4006508E300D6
:100C88000800B801B61F4F2EB509B609B50A0319F1
:100C9800B60AB801B80A3508A0003608A1008E3097
:100CA800A201A3003808A400BB262008B50021082B
:100CB800B6002208B7000800E6270A128A110310B6
:100CC8002D0D2E0DB400B408031D6F2EA801A90127
:100CD800AA01AB010800E6270A128A11173003108F
:100CE800AE0CAD0CAC0CFF3E031D732E2C08AF00F0
:100CF800A917AA012808B0002908B1002A08B200DB
:100D08008E30B301B402B41F962E3408803A8F3E59
:100D1800031C6A2E0310B30CB20CB10CB00CB40F48
:100D28008E2EA42E1830340203186A2EB408031924
:100D3800A42E0310B00DB10DB20DB30DB4039A2E4D
:100D48002F080319B22EB009B109B209B309B00AC4
:100D58000319B10A0319B20A0319B30A3308AB001D
:100D68003208AA003108A9003008A80008002308A2
:100D78000319C32E220821042004031DCC2EA00130
:100D8800A101A2010800A30A0310A20CA10CA00C47
:100D9800FE3022050319DB2EC72EA30AA00A031969
:100DA800A10A0319A20A0310A20CA10CA00CFF307F
:100DB80022050319E52ED12EA3030310A00DA10DC2
:100DC800A20DA11FE02E231CA1130310A30C2308BE
:100DD800A700A601A5012508A0042608A104270844
:100DE800A2042408031DA21708004808CE004908D9
:100DF800CF004A08D00003104F0D500DD100D10884
:100E0800031D0A2FC801C901CA0108004B08CE00FA
:100E18004C08CF004D08D00003104F0D500DD600E0
:100E2800D608031D1B2FC801C901CA0108005608AE
:100E38007B3ED1074A08D6004D08D6068030D60535
:100E48000730C917CC17CD01D201D301D401D50081
:100E5800481C362F4B08AC270A128A1103184D0A72
:100E6800031DD4070310CA0CC90CC80C0310CB0D02
:100E7800CC0DCD0DD50B2C2F0930D500481C4C2F8F
:100E88004B08AC270A128A1103184D0A031DD40710
:100E98000310CA0CC90CC80C0310D40CD30CD20C08
:100EA800D50B422F5208A0005308A1005408A200F5
:100EB8005108A3005608A400BB262008C800210832
:100EC800C9002208CA000800ED27A300A200A20D4D
:100ED800A20D1F082206C33922069F009F149F18DF
:100EE800732F1E08A400A501A500A40183161E08DF
:100EF8008312A4042508A1002408A00008002808DB
:100F0800A0002908A1008E30A201A300A401BB26DD
:100F18002008A8002108A9002208AA000800210822
:100F28008316AB00831220088316AA00F81608005F
:100F380003178D003F3083168C050C1483120800AC
:100F4800A0002408A63E8400831300082006080099
:100F5800D2074C08031103184C0A031DD3074D0888
:100F680003110800831203136408803AFF008130DC
:100F78007F020800831203136408803AFF00803060
:100F88007F020800B5006B08B5026C08031CB603A5
:100F9800B6020800831203136408803AFF00833006
:100FA8007F020800831203136408803AFF0082302E
:100FB8007F020800831203136408803AFF0084301C
:100FC8007F0208002808AC002908AD002A08AE00F6
:100FD8000800831203130800861603178916831264
:100FE80003139F171F1383169F179F121F12831235
:040FF8001F140800BA
:1010000008308A000408840A82070034CE34FF3492
:10101000D834FF34EC34FF3400340034143400345A
:10102000283400343C340034503400346434003408
:10103000783400348C340034D734FF34EB34FF344C
:10104000FF34FF3413340034273400343B3400348D
:101050004F34003463340034773400348B3400343C
:101060009634003413340534DF34043475340434D6
:101070000A3404349D34033430340334C03402342D
:101080004F340234DC34013469340134F334003435
:10109000E43404347A3404340F340434A334033491
:1010A00035340334C634023454340234E234013467
:1010B0006F340134F9340034B734003452344F34CF
:1010C0004C344534003449345334493400345434B6
:0610D0004D344F340034E2
:1016300064008001840A0406031900340406192B8F
:1016400007178717181103173330871503139900ED
:1016500018128312981718168316981618138312E7
:101660001813981183168C160C120800A030F8017C
:10167000F901FA01FB01FC01EF0183138400C6307C
:101680000A128A1518230A128A15903083178400CB
:10169000CC300A128A1518230A128A1510308400D9
:1016A0004C300A128A15182383010A128A15B52DA7
:1016B00085018601870188018901753083168F00B5
:1016C000831203178701880116308713881385005A
:1016D00087308316031381008B018C018D01031762
:1016E00089018801031395010B118B168501373091
:1016F0008600C03087008801890187118312871115
:101700008501860187018801890105308316CC0097
:10171000CE000230CD0008003C08BF003D08C000EC
:101720003E08C1000310400D410DC600C608031D50
:101730009D2BB901BA01BB0108003908BF003A0866
:10174000C0003B08C1000310400D410DC700C70891
:10175000031DAE2BB901BA01BB0108008930C301DA
:10176000C401C5014707BF00C6023E08C7003B08C9
:10177000C7068030C7051830BD17BE01BA17BB01B8
:10178000C2000310C30DC40DC50D3B083E02031D6E
:10179000CF2B3A083D02031DCF2B39083C02031C16
:1017A000DD2B3908BC023A08031C3A0FBD023B0886
:1017B000031C3B0ABE0243140310BC0DBD0DBE0D3D
:1017C000C20BC12B4308A0004408A1004508A20099
:1017D0004608A3004708A4000A128A11BB26200865
:1017E000B9002108BA002208BB0008005708DD0034
:1017F0005808DE005908DF0003105E0D5F0DE2009F
:101800005A08DD005B08DE005C08DF0003105E0D97
:101810005F0DE10062080319192C6108620261087A
:101820000318212CDD006208DD0219305D02031C63
:10183000202C5A08D7005B08D8005C08D9000800A3
:101840006108031908006208610203182F2C62085E
:10185000DD006108DD0219305D0203180800063062
:10186000E000D91BE017DC1B6017D817D901DB1784
:10187000DC01610862020318562C0310DA0DDB0D3F
:10188000DC0DE103610862060319512CE0036008D6
:1018900007390319512C3D2C0310D90CD80CD70C47
:1018A000E20A620861060319722C4C2C620861027C
:1018B0000318722C0310D70DD80DD90DE20361085F
:1018C000620603196E2CE0036008073903196E2CB9
:1018D0005A2C0310DC0CDB0CDA0CE10A62086106FE
:1018E000031D692CE01F7D2CFF30D706D806D906D2
:1018F000D70A0319D80A0319D90A601F882CFF30A8
:10190000DA06DB06DC06DA0A0319DB0A0319DC0A4D
:10191000E0015708DA07580803110318580A031D95
:10192000DB07590803110318590A031DDC07DC1FE4
:10193000A42CFF30DA06DB06DC06DA0A0319DB0A20
:101940000319DC0AE001E00A5A08A0005B08A100C4
:101950005C08A2006208A3006008A4000A128A11B1
:10196000BB262008D7002108D8002208D90008008B
:101970008B1A0B1D0A2DBE308312031381008316B0
:10198000CC0B082D0C30CC00F90BCB2C781CCB2CBD
:10199000831288107810FA0BD22CF81CD22C8312E8
:1019A0000811F8108312EF0BD92C781DD92C88114F
:1019B00078118316B00BE12CF81DE12C831207126D
:1019C000F8118316B10BE92C781EE92C83128712CB
:1019D000781201308316AA020030031CAB03AB025D
:1019E0002B082A040319F81EFC2C64250A128A15F8
:1019F000B830AA000B30AB00CE0B082D0530CE005E
:101A0000CD0B082D0230CD000130831288067817E7
:101A10000B11372D831603138C1E232D83128C1E5E
:101A2000232D981C152D1812181618191A088C1A1F
:101A30001D2D40250A128A15172D1A08F700492571
:101A40000A128A15372D83160C1E372D83120C1E91
:101A5000372D7B087C060319332D57250A128A156A
:101A6000F7009900372D83160C1283120C1276089A
:101A70008A0075088400740E8300FE0E7E0E090035
:101A800083120313981C462D1812181618191A08D9
:101A90000800F00083163908903E84007008831710
:101AA0008000B90A39083C3A0319B90108007B08DB
:101AB000103E840083170008F000FB0A7B083C3AC4
:101AC0000319FB0170080800831287156830F300C2
:101AD000E430F200F20B6A2DF30B6A2D64006830DB
:101AE000F300E430F200F20B732DF30B732D64005E
:101AF0006830F300E430F200F20B7C2DF30B7C2D08
:101B000064006830F300E430F200F20B852DF30B33
:101B1000852D64006830F300E430F200F20B8E2D66
:101B2000F30B8E2D64006830F300E430F200F20B0A
:101B3000972DF30B972D64006830F300E430F2002A
:101B4000F20BA02DF30BA02D640083120313871159
:101B5000B830F0000B30F100AE2508007108831694
:101B6000AB007008AA00F81608000A128A1558235C
:101B70000A128A150A128A1520230A128A150A12D5
:101B80008A11F0270A128A158316AE01AF010B17CE
:101B90008B178B17831206088316B4003730B405F1
:101BA000B8308312A0000B30A1000A128A119327CB
:101BB0000A128A156400781F0B2E78130A128A11F4
:101BC00015230A128A1558088316AF008312570886
:101BD0008316AE002F088312E40083162E088312AA
:101BE000E3000A128A1163230A128A156408831615
:101BF000AD00831263088316AC000A128A11B82262
:101C00000A128A1526088316AC070318AD0A831238
:101C100027088316AD07831603132D08803AFF00AB
:101C200080307F02031D162E23302C02031C1C2E35
:101C30008312031388142C2E831603132D08803A65
:101C4000FF0080307F02031D272E1F302C02031857
:101C50002C2E8312031388108312031306081739DE
:101C6000831634060319AF2E6830CB00E430CA0067
:101C7000CA0B382ECB0B382E6400831203130608D0
:101C80001739831634060319AF2E831206088316FC
:101C9000B4001730B4053C300A128A11BF210A1271
:101CA0008A1544300A128A11BF210A128A1555304A
:101CB0000A128A11BF210A128A1552300A128A1199
:101CC000BF210A128A1555300A128A11BF210A1241
:101CD0008A154D300A128A11BF210A128A153A302C
:101CE0000A128A11BF210A128A1506080139303EEC
:101CF0000A128A11BF210A128A15060C0139303ED8
:101D00000A128A11BF210A128A15060C8316CA000C
:101D10004A0C0139303E0A128A11BF210A128A1573
:101D2000060E0139303E0A128A11BF210A128A15A5
:101D300030300A128A11BF210A128A1530300A1275
:101D40008A11BF210A128A153E300A128A11BF2158
:101D50000A128A150A128A1157220A128A150A12C1
:101D60008A1111200A128A15DA2D3608B0003508BA
:101D7000AF000A30B100BA30B20151270A128A15F9
:101D80002B308316A0003A08A1003B08A2003C08B3
:101D9000A3004330A400A50183123608803AFF0057
:101DA00080307F02031DD62E643035020318E52EE5
:101DB0002B3083160313A0003030A1003A08A20094
:101DC0003B08A3004330A400A50183120313360887
:101DD000803AFF0080307F02031DF02E0A3035026A
:101DE0000318FE2E2B3083160313A0003030A10001
:101DF000A2003A08A3004330A400A50183120313F4
:101E000036083504031D0E2F30308316A000A100C4
:101E1000A2003A08A3004330A400A50183123608AB
:101E2000803AFF007F307F02031D182FF730350204
:101E3000031C292F83120313B61F292F83163A0878
:101E4000A0003030A100A2003B08A3004330A40052
:101E5000A501831203133608803AFF007F307F020A
:101E6000031D342FCE303502031C080083120313E8
:101E70003608803AFF007F307F02031D412FF73084
:101E8000350203180800831603133A08A000303007
:101E9000A1003B08A2003C08A3004330A400A50118
:101EA0000800B400B01F5E2F340884002D3080007D
:101EB000B40AAF09B009AF0A0319B00A3008A80084
:101EC0002F08A7003208AA003108A9003408682F9B
:101ED000AE002808AC002708AB002A08A10029089A
:101EE000A0002C08A3002B08A200B2270A128A1512
:101EF0002108AC002008AB00AE0A2C04031D6D2F96
:101F00002E0884008001AE032A08A1002908A00041
:101F10002808A3002708A200DC270A128A15200837
:101F2000AD002A08A1002908A0002808A30027085E
:101F3000A200B2270A128A152108A8002008A700CB
:101F40000A302D02031CA62F0730AD073030AD0735
:101F50002E0884002D088000AE03280827040319EA
:101F60000800842FA401A501210820040319D72FFC
:101F7000A601A60AA11BC02F0310A00DA10DB92F09
:101F80000310A40DA50D21082302031DC92F20084D
:101F90002202031CD32F2008A2022108031CA30342
:101FA000A30224140310A10CA00CA60BC02F25081B
:101FB000A1002408A0000800210820040319FB2F19
:101FC000A401A40AA11BE82F0310A00DA10DE12F6D
:101FD00021082302031DEE2F20082202031CF72FE5
:101FE0002008A2022108031CA303A3020310A10CD2
:101FF000A00CA40BE82F2308A1002208A0000800D1
:02400E002CE0A4
:10420000310030000000000000002B0030003000C2
:00000001FF
