:060000000A128A110E280D
:10000800FE00030EF4000408F5000A08F6000A12C0
:100018008A15022F0A128A11DC2F6408803AFF0021
:1000280084307F02031D1A28E0306302031C49282C
:100038002D3084000A128A1500200A128A11E02342
:10004800EB000A128A1500200A128A11EC004330CC
:1000580084000A128A1500200A128A11E7000A127F
:100068008A1500200A128A11E800013084000A1259
:100078008A1500200A128A11ED000A128A1500203A
:100088000A128A11EE001730642AC1230A128A1153
:10009800031D502876306302031C7F282F3084000C
:1000A8000A128A1500200A128A11E023EB000A12AC
:1000B8008A1500200A128A11EC00453084000A12C1
:1000C8008A1500200A128A11E7000A128A150020F0
:1000D8000A128A11E800033084000A128A150020E7
:1000E8000A128A11ED000A128A1500200A128A11D2
:1000F800EE001930642AC1230A128A11031D8628CA
:100108000B306302031CB528313084000A128A15AB
:1001180000200A128A11E023EB000A128A15002037
:100128000A128A11EC00473084000A128A1500204E
:100138000A128A11E7000A128A1500200A128A1187
:10014800E800053084000A128A1500200A128A1174
:10015800ED000A128A1500200A128A11EE001B30DF
:10016800642AB1230A128A11031DBC289E30630237
:10017800031CEB28333084000A128A1500200A1267
:100188008A11E023EB000A128A1500200A128A114C
:10019800EC00493084000A128A1500200A128A11DC
:1001A800E7000A128A1500200A128A11E8000730AF
:1001B80084000A128A1500200A128A11ED000A1218
:1001C8008A1500200A128A11EE001D30642AB12314
:1001D8000A128A11031DF22831306302031C2129F7
:1001E800353084000A128A1500200A128A11E02389
:1001F800EB000A128A1500200A128A11EC004B3013
:1002080084000A128A1500200A128A11E7000A12CD
:100218008A1500200A128A11E800093084000A129F
:100228008A1500200A128A11ED000A128A15002088
:100238000A128A11EE001F30642AB9230A128A11A1
:10024800031D2829C1306302031C57293730840055
:100258000A128A1500200A128A11E023EB000A12FA
:100268008A1500200A128A11EC004D3084000A1207
:100278008A1500200A128A11E7000A128A1500203E
:100288000A128A11E8000B3084000A128A1500202D
:100298000A128A11ED000A128A1500200A128A1120
:1002A800EE002130642AB9230A128A11031D5E293F
:1002B80050306302031C8D29393084000A128A15D4
:1002C80000200A128A11E023EB000A128A15002086
:1002D8000A128A11EC004F3084000A128A15002095
:1002E8000A128A11E7000A128A1500200A128A11D6
:1002F800E8000D3084000A128A1500200A128A11BB
:10030800ED000A128A1500200A128A11EE00233025
:10031800642AC9230A128A11031D9429DD30630255
:10032800031CC3293B3084000A128A1500200A12D4
:100338008A11E023EB000A128A1500200A128A119A
:10034800EC00513084000A128A1500200A128A1122
:10035800E7000A128A1500200A128A11E8000F30F5
:1003680084000A128A1500200A128A11ED000A1266
:100378008A1500200A128A11EE002530642AC92342
:100388000A128A11031DCA296A306302031CF9295B
:100398003D3084000A128A1500200A128A11E023CF
:1003A800EB000A128A1500200A128A11EC00533059
:1003B80084000A128A1500200A128A11E7000A121C
:1003C8008A1500200A128A11E800113084000A12E6
:1003D8008A1500200A128A11ED000A128A150020D7
:1003E8000A128A11EE002730642AD1230A128A11D0
:1003F800031D002AF4306302031C2F2A3F308400B7
:100408000A128A1500200A128A11E023EB000A1248
:100418008A1500200A128A11EC00553084000A124D
:100428008A1500200A128A11E7000A128A1500208C
:100438000A128A11E800133084000A128A15002073
:100448000A128A11ED000A128A1500200A128A116E
:10045800EE002930642AD1230A128A11031D362A94
:10046800B7306302031C712A413084000A128A15CE
:1004780000200A128A11E023EB000A128A150020D4
:100488000A128A11EC00573084000A128A150020DB
:100498000A128A11E7000A128A1500200A128A1124
:1004A800E800153084000A128A1500200A128A1101
:1004B800ED000A128A1500200A128A11EE002B306C
:1004C80084000A128A1500200A128A11E9000A1209
:1004D8008A1500200A128A11EA00E0236408B6008F
:1004E8006308A9230A128A11F5220A128A1135080B
:1004F800CB003608CC003708CD006A08B60069087A
:10050800B5006D08B5026E08031CB603B602F522E5
:100518000A128A113508BC003608BD003708BE002B
:100528006808B6006708A9230A128A11F522350857
:10053800B9003608BA003708BB000A128A117227B8
:100548000A128A113908C8003A08C9003B08CA00CB
:100558000A128A1575260A128A114808DA0049080B
:10056800DB004A08DC006E08B6006D08B500F5220D
:100578003508D7003608D8003708D9000A128A1576
:100588004C250A128A115708A8005808A9005908CA
:10059800AA0010230A128A112908E6002808E50093
:1005A8006408803AFF0080307F02031DDD2AB730DF
:1005B8006302031CEB2AE0236408803AFF008530BD
:1005C8007F02031DE92A14306302031CEF2AFF305F
:1005D800E023E500E601E0236608E4006508E3009F
:1005E8000800B801B61FFF2AB509B609B50A0319EC
:1005F800B60AB801B80A3508A0003608A1008E303E
:10060800A201A3003808A4006B232008B500210824
:10061800B6002208B7000800D9230A128A1103106D
:100628002D0D2E0DB400B408031D1F2BA801A90120
:10063800AA01AB010800D9230A128A111730031046
:10064800AE0CAD0CAC0CFF3E031D232B2C08AF00E9
:10065800A917AA012808B0002908B1002A08B20081
:100668008E30B301B402B41F462B3408803A8F3E53
:10067800031C1A2B0310B30CB20CB10CB00CB40F42
:100688003E2B542B1830340203181A2BB4080319C4
:10069800542B0310B00DB10DB20DB30DB4034A2B9A
:1006A8002F080319622BB009B109B209B309B00ABE
:1006B8000319B10A0319B20A0319B30A3308AB00C4
:1006C8003208AA003108A9003008A8000800230849
:1006D8000319732B220821042004031D7C2BA0017D
:1006E800A101A2010800A30A0310A20CA10CA00CEE
:1006F800FE30220503198B2B772BA30AA00A0319B6
:10070800A10A0319A20A0310A20CA10CA00CFF3025
:1007180022050319952B812BA3030310A00DA10D0E
:10072800A20DA11F902B231CA1130310A30C2308B7
:10073800A700A601A5012508A0042608A1042708EA
:10074800A2042408031DA2170800B5006B08B5020F
:100758006C08031CB603B60208008312031364086E
:10076800803AFF0083307F02080083120313640875
:10077800803AFF0082307F02080083120313640866
:10078800803AFF0084307F02080083120313640854
:10079800803AFF0081307F02080083120313640847
:1007A800803AFF0080307F0208002808AC00290842
:1007B800AD002A08AE0008008312031308000A12CD
:1007C8008A1518250A128A110A128A159E240A12F5
:1007D8008A110A128A1561240A128A118316A8013D
:1007E800A9010B178B178B17FB01FA018312060857
:1007F8008316B1003730B105B8308312A0000B3032
:10080800A1000A128A154B240A128A116400831265
:10081800031306081739831631060319922C68301A
:10082800CA00E430C900C90B172CCA0B172C640086
:100838008312031306081739831631060319922CFD
:10084800831206088316B1001730B1053C300A122E
:100858008A158C240A128A1144300A128A158C24AB
:100868000A128A1155300A128A158C240A128A1122
:1008780052300A128A158C240A128A1155300A122B
:100888008A158C240A128A114D300A128A158C2472
:100898000A128A113A300A128A158C240A128A110D
:1008A800831206080139303E0A128A158C240A126E
:1008B8008A118312060C0139303E0A128A158C24DB
:1008C8000A128A118312060C8316C900490C0139D1
:1008D800303E0A128A158C240A128A118312060ED7
:1008E8000139303E0A128A158C240A128A113030D6
:1008F8000A128A158C240A128A1130300A128A15B3
:100908008C240A128A113E300A128A158C240A1283
:100918008A110A128A153E240A128A117B087A065D
:1009280003190A2C0A128A157D240A128A11F90061
:100938007C0BA42C79083C3A031D0A2C0A30CD2DD7
:100948007C080A3A031DB72C7908523A031DAE2CCD
:100958000330CD2D7908493A031DB42C0C30CD2D28
:10096800FC01FC0A0A2C7C08033A031DC12C7908F7
:100978004F3A031DB42C0430CD2D7C08043A031DD6
:10098800CB2C79084C3A031DB42C0530CD2D7C08AE
:10099800053A031DD52C7908453A031DB42C0630B9
:1009A800CD2D7C08063A031DDF2C79083A3A031D41
:1009B800B42C0730CD2D7C08073A031D1A2D790871
:1009C8008316B6008312EF0103308316CA009730EE
:1009D800C900C90BED2CCA0BED2CF22C0A128A1592
:1009E8007D240A128A118316C90083126F08B73E44
:1009F8008400831649088313800083126F08B73E6A
:100A0800840000083C3A031D0B2D0230CD2D6F08E1
:100A1800B73E840000083E3A0319B42C0830FC00A5
:100A28000530EF0A6F0203180A2CE82C7C08083AF4
:100A3800031DBA2D79083E3A031DB82DEF016F0842
:100A4800B63E840083130008413A031D342DA001EB
:100A5800A00A6F0A0A128A15B4240A128A11912D63
:100A68006F08B63E840000084B3A031D432DA001D1
:100A78006F0A0A128A15B4240A128A11912D6F0876
:100A8800B63E84000008303A031D4C2D32308A2DC2
:100A98006F08B63E84000008D03E8316C900FF30B8
:100AA80003180030CA004A08803AFF0080307F02ED
:100AB800031D602D01304902031C912D831203137D
:100AC8006F08B63E840083130008D03E8316C90021
:100AD800FF3003180030CA004A08803AFF0080300F
:100AE8007F02031D792D0A3049020318912D053024
:100AF80083120313A0006F08B63E84008313000816
:100B0800D03E0A128A156F240A128A11A3006F0AAE
:100B18000A128A15E6240A128A1183120313063070
:100B2800EF0A6F02031C232D3C300A128A158C240D
:100B38000A128A114F300A128A158C240A128A1155
:100B48004B300A128A158C240A128A113E300A1276
:100B58008A158C240A128A11FC01FC0A0A128A15C9
:100B68003E240A128A11002C0830CD2D7C080C3A3C
:100B7800031DC42D7908533A031DB42C0D30CD2D17
:100B88007C080D3A031DCF2D7908493A031DB42C72
:100B98000F30FC000A2C7C080F3A031D0A2C790838
:100BA8003E3A031DB42C0A128A150E260A128A111F
:100BB80058088316A900831257088316A800290825
:100BC8008312E400831628088312E3000A128A11AC
:100BD80011200A128A1164088316AB008312630875
:100BE8008316AA000A128A1554240A128A11831637
:100BF8002B088312B60083162A088312B5000A123E
:100C08008A1128260A128A113C300A128A158C2465
:100C18000A128A1120080A128A158C240A128A11CB
:100C280021080A128A158C240A128A1122080A122B
:100C38008A158C240A128A1123080A128A158C2410
:100C48000A128A112408A52D3608B0003508AF000D
:100C58000A30B100C030B201A4260A128A112B3022
:100C68008316A000400853270A128A1183123608F7
:100C7800803AFF0080307F02031D442E6430350225
:100C88000318502E2B3083160313A0003030A10018
:100C980040086B270A128A11831203133608803A18
:100CA800FF0080307F02031D5B2E0A3035020318D7
:100CB800652E2B3083160313A00030305C270A12F0
:100CC8008A118312031336083504031D712E303040
:100CD8008316A0005C270A128A1183123608803A0C
:100CE800FF007F307F02031D7B2EF7303502031C87
:100CF800892E83120313B61F892E83164008A0007D
:100D08003030A1006B270A128A11831264270A1255
:100D18008A11031D912ECE303502031C0800831260
:100D280064270A128A11031D9B2EF7303502031817
:100D38000800831603134008A0003030532708002A
:100D4800B400B01FB12E340884002D308000B40ADE
:100D5800AF09B009AF0A0319B00A3008A8002F0874
:100D6800A7003208AA003108A9003408BB2EAE003B
:100D78002808AC002708AB002A08A1002908A00011
:100D88002C08A3002B08A20005270A128A112108A3
:100D9800AC002008AB00AE0A2C04031DC02E2E08A0
:100DA80084008001AE032A08A1002908A0002808B1
:100DB800A3002708A2002F270A128A112008AD00D5
:100DC8002A08A1002908A0002808A3002708A200D3
:100DD80005270A128A112108A8002008A7000A304E
:100DE8002D02031CF92E0730AD073030AD072E0851
:100DF80084002D088000AE03280827040319080082
:100E0800D72EA401A5012108200403192A2FA60121
:100E1800A60AA11B132F0310A00DA10D0C2F031060
:100E2800A40DA50D21082302031D1C2F2008220252
:100E3800031C262F2008A2022108031CA303A302D7
:100E480024140310A10CA00CA60B132F2508A10035
:100E58002408A00008002108200403194E2FA4012B
:100E6800A40AA11B3B2F0310A00DA10D342F2108AC
:100E78002302031D412F20082202031C4A2F2008A9
:100E8800A2022108031CA303A3020310A10CA00CB7
:100E9800A40B3B2F2308A1002208A0000800A100F2
:100EA8004108A2004208A3004330A400A50108009D
:100EB800A100A2004008A3004330A400A501080037
:100EC80003133608803AFF007F307F020800A20033
:100ED8004108A3004330A400A50108003C08BF0056
:100EE8003D08C0003E08C1000310400D410DC6007A
:100EF800C608031D832FB901BA01BB0108003908D0
:100F0800BF003A08C0003B08C1000310400D410D66
:100F1800C700C708031D942FB901BA01BB01080017
:100F28008930C301C401C5014707BF00C6023E0896
:100F3800C7003B08C7068030C7051830BD17BE017B
:100F4800BA17BB01C2000310C30DC40DC50D3B0881
:100F58003E02031DB52F3A083D02031DB52F39087F
:100F68003C02031CC32F3908BC023A08031C3A0F81
:100F7800BD023B08031C3B0ABE0243140310BC0D10
:100F8800BD0DBE0DC20BA72F4308A0004408A10049
:100F98004508A2004608A3004708A4000A128A11BF
:100FA8006B232008B9002108BA002208BB000800FA
:100FB800A030F801F901FA01FB0183138400C6305F
:100FC8000A128A1543240A128A1190308317840062
:100FD800CC300A128A1543240A128A111030840070
:100FE8006A300A128A1543240130FC0083010A1270
:040FF8008A11E32B4C
:1010000008308A000408840A82070034CE34FF3492
:10101000D834FF34EC34FF3400340034143400345A
:10102000283400343C340034503400346434003408
:10103000783400348C340034D734FF34EB34FF344C
:10104000FF34FF3413340034273400343B3400348D
:101050004F34003463340034773400348B3400343C
:101060009634003413340534DF34043475340434D6
:101070000A3404349D34033430340334C03402342D
:101080004F340234DC34013469340134F334003435
:10109000E43404347A3404340F340434A334033491
:1010A00035340334C634023454340234E234013467
:0C10B0006F340134F9340034B7340034DC
:10187C0083120C1283160C16080064008001840A73
:10188C000406031900340406442C21088316A7000F
:10189C00831220088316A600F81608008312A001F4
:1018AC002008A03E8400063083138001A00A200289
:1018BC0003180800562C8616031789168312031377
:1018CC009F171F1383169F179F121F1283121F142B
:1018DC000800A200A10120082218A1070310A00DE6
:1018EC000310A20CA208031D712C210808007A0811
:1018FC00103E84008317000883120313A000FA0A19
:10190C007A085A3A0319FA012008080083120313C3
:10191C00A00083163508903E84008312200883179C
:10192C0080008316B50A35083C3A0319B501080046
:10193C0007178717181103173330871503139900EE
:10194C0018128312981718168316981618138312E8
:10195C001813981183168C160C120800A100D42CA5
:10196C002008031D88140319881008002008031D83
:10197C0008150319081108002008031D8815031900
:10198C00881108002008031D071603190712080008
:10199C002008031D87160319871208002108013A35
:1019AC000319B62C033A0319BC2C013A0319C22CA7
:1019BC00073A0319C82C013A0319CE2CE52C080060
:1019CC00A400062D881423088316AC007814080094
:1019DC00081523088316AD00F81408008815230891
:1019EC008316AE0078150800071623088316AF007F
:1019FC00F8150800871623088316B000781608001F
:101A0C002408013A0319E82C033A0319EE2C013A85
:101A1C000319F42C073A0319FA2C013A0319002D77
:101A2C00172D080085018601870188018901753011
:101A3C0083168F00831203178701880116308713D2
:101A4C008813850087308316031381008B018C016A
:101A5C008D01031789018801031395010B118B1656
:101A6C00850137308600C0308700880189018711D5
:101A7C008312871185018601870188018901053050
:101A8C008316C600C8000230C70008005708DD00E6
:101A9C005808DE005908DF0003105E0D5F0DE200F0
:101AAC005A08DD005B08DE005C08DF0003105E0DE9
:101ABC005F0DE100620803196F2D61086202610875
:101ACC000318772DDD006208DD0219305D02031C5E
:101ADC00762D5A08D7005B08D8005C08D90008009E
:101AEC00610803190800620861020318852D620859
:101AFC00DD006108DD0219305D02031808000630B4
:101B0C00E000D91BE017DC1B6017D817D901DB17D5
:101B1C00DC01610862020318AC2D0310DA0DDB0D39
:101B2C00DC0DE103610862060319A72DE0036008D0
:101B3C0007390319A72D932D0310D90CD80CD70CEA
:101B4C00E20A620861060319C82DA22D620861021F
:101B5C000318C82D0310D70DD80DD90DE203610859
:101B6C0062060319C42DE003600807390319C42D5C
:101B7C00B02D0310DC0CDB0CDA0CE10A62086106F8
:101B8C00031DBF2DE01FD32DFF30D706D806D90675
:101B9C00D70A0319D80A0319D90A601FDE2DFF30A2
:101BAC00DA06DB06DC06DA0A0319DB0A0319DC0A9F
:101BBC00E0015708DA07580803110318580A031DE7
:101BCC00DB07590803110318590A031DDC07DC1F36
:101BDC00FA2DFF30DA06DB06DC06DA0A0319DB0A1B
:101BEC000319DC0AE001E00A5A08A0005B08A10016
:101BFC005C08A2006208A3006008A4000A128A1103
:101C0C006B232008D7002108D8002208D90008002F
:101C1C00DC01DD01DE01DF010D305B260A128A15C5
:101C2C002008DC070318DD0A2108DD07DE0A03198A
:101C3C00DF0A00305F02103003195E02031C122E03
:101C4C000F30DC0EDD0EDC055D08F039DC040F30E6
:101C5C00DD054030C8004E30C9004030CA005D0878
:101C6C00A9005C08A800E6260A128A152808CB00F1
:101C7C002908CC002A08CD0075264808D900490847
:101C8C00DA004A08DB005908A8005A08A9005B08CA
:101C9C00AA000A128A1110232908DF002808DE0086
:101CAC005F08D8005E08D7000800A300A200A20DB0
:101CBC00A20D1F082206C33922069F009F149F18ED
:101CCC00652E1E08A400A501A500A40183161E08FC
:101CDC008312A4042508A1002408A00008004808C9
:101CEC00CE004908CF004A08D00003104F0D500D0C
:101CFC00D100D108031D862EC801C901CA010800F4
:101D0C004B08CE004C08CF004D08D00003104F0DEF
:101D1C00500DD600D608031D972EC801C901CA0163
:101D2C00080056087B3ED1074A08D6004D08D60657
:101D3C008030D6050730C917CC17CD01D201D3019D
:101D4C00D401D500481CB22E4B08F8260A128A156D
:101D5C0003184D0A031DD4070310CA0CC90CC80C78
:101D6C000310CB0DCC0DCD0DD50BA82E0930D50005
:101D7C00481CC82E4B08F8260A128A1503184D0A5F
:101D8C00031DD4070310CA0CC90CC80C0310D40CC7
:101D9C00D30CD20CD50BBE2E5208A0005308A100B8
:101DAC005408A2005108A3005608A4000A128A1174
:101DBC006B232008C8002108C9002208CA000800AB
:101DCC002808A0002908A1008E30A201A300A401BC
:101DDC000A128A116B232008A8002108A9002208E6
:101DEC00AA000800D2074C08031103184C0A031D63
:101DFC00D3074D08031108008B1A0B1D552FBE304D
:101E0C008312031381008316C60B532F0C30C600AC
:101E1C00AC0B152F781C152F831288107810831695
:101E2C00AD0B1D2FF81C1D2F83120811F8108316F3
:101E3C00AE0B252F781D252F831288117811831650
:101E4C00AF0B2D2FF81D2D2F83120712F8118316AF
:101E5C00B00B352F781E352F831287127812013074
:101E6C008316A6020030031CA703A702270826042A
:101E7C000319F81E482FAF270A128A15B830A6008E
:101E8C000B30A700C80B532F0530C800C70B532FBE
:101E9C000230C7000130831288060B11832F831682
:101EAC0003138C1E6E2F83128C1E6E2F981C602FAA
:101EBC001812181618191A088C1A682F8C270A125F
:101ECC008A15622F1A08F70095270A128A15832F94
:101EDC0083160C1E832F83120C1E832F831634083B
:101EEC0035060319802FA2270A128A15F7008312D0
:101EFC009900832F0C1283120C1276088A00750835
:101F0C008400740E8300FE0E7E0E090083120313F0
:101F1C00981C922F1812181618191A080800F0009D
:101F2C007B08103E8400700883178000FB0A7B0836
:101F3C005A3A0319FB0108003408903E84008317B9
:101F4C000008F000B40A34083C3A0319B4017008D4
:101F5C000800831287156830F300E430F200F20BAE
:101F6C00B52FF30BB52F64006830F300E430F200AA
:101F7C00F20BBE2FF30BBE2F64006830F300E4307D
:101F8C00F200F20BC72FF30BC72F64006830F3007D
:101F9C00E430F200F20BD02FF30BD02F640068303A
:101FAC00F300E430F200F20BD92FF30BD92F6400BD
:101FBC006830F300E430F200F20BE22FF30BE22F67
:101FCC0064006830F300E430F200F20BEB2FF30BFB
:101FDC00EB2F6400831203138711B830F0000B3021
:101FEC00F100F927080071088316A7007008A600F5
:041FFC00F8160800CB
:02400E002CE0A4
:10420000310030000000000000000000000000004D
:00000001FF
